{
  "contractName": "Land",
  "abi": [
    {
      "inputs": [
        {
          "internalType": "string",
          "name": "_name",
          "type": "string"
        },
        {
          "internalType": "string",
          "name": "_symbol",
          "type": "string"
        },
        {
          "internalType": "uint256",
          "name": "_cost",
          "type": "uint256"
        }
      ],
      "stateMutability": "nonpayable",
      "type": "constructor"
    },
    {
      "anonymous": false,
      "inputs": [
        {
          "indexed": true,
          "internalType": "address",
          "name": "owner",
          "type": "address"
        },
        {
          "indexed": true,
          "internalType": "address",
          "name": "approved",
          "type": "address"
        },
        {
          "indexed": true,
          "internalType": "uint256",
          "name": "tokenId",
          "type": "uint256"
        }
      ],
      "name": "Approval",
      "type": "event"
    },
    {
      "anonymous": false,
      "inputs": [
        {
          "indexed": true,
          "internalType": "address",
          "name": "owner",
          "type": "address"
        },
        {
          "indexed": true,
          "internalType": "address",
          "name": "operator",
          "type": "address"
        },
        {
          "indexed": false,
          "internalType": "bool",
          "name": "approved",
          "type": "bool"
        }
      ],
      "name": "ApprovalForAll",
      "type": "event"
    },
    {
      "anonymous": false,
      "inputs": [
        {
          "indexed": true,
          "internalType": "address",
          "name": "from",
          "type": "address"
        },
        {
          "indexed": true,
          "internalType": "address",
          "name": "to",
          "type": "address"
        },
        {
          "indexed": true,
          "internalType": "uint256",
          "name": "tokenId",
          "type": "uint256"
        }
      ],
      "name": "Transfer",
      "type": "event"
    },
    {
      "inputs": [
        {
          "internalType": "address",
          "name": "to",
          "type": "address"
        },
        {
          "internalType": "uint256",
          "name": "tokenId",
          "type": "uint256"
        }
      ],
      "name": "approve",
      "outputs": [],
      "stateMutability": "nonpayable",
      "type": "function"
    },
    {
      "inputs": [
        {
          "internalType": "address",
          "name": "owner",
          "type": "address"
        }
      ],
      "name": "balanceOf",
      "outputs": [
        {
          "internalType": "uint256",
          "name": "",
          "type": "uint256"
        }
      ],
      "stateMutability": "view",
      "type": "function",
      "constant": true
    },
    {
      "inputs": [
        {
          "internalType": "uint256",
          "name": "",
          "type": "uint256"
        }
      ],
      "name": "buildings",
      "outputs": [
        {
          "internalType": "string",
          "name": "name",
          "type": "string"
        },
        {
          "internalType": "address",
          "name": "owner",
          "type": "address"
        },
        {
          "internalType": "int256",
          "name": "posX",
          "type": "int256"
        },
        {
          "internalType": "int256",
          "name": "posY",
          "type": "int256"
        },
        {
          "internalType": "int256",
          "name": "posZ",
          "type": "int256"
        },
        {
          "internalType": "uint256",
          "name": "sizeX",
          "type": "uint256"
        },
        {
          "internalType": "uint256",
          "name": "sizeY",
          "type": "uint256"
        },
        {
          "internalType": "uint256",
          "name": "sizeZ",
          "type": "uint256"
        }
      ],
      "stateMutability": "view",
      "type": "function",
      "constant": true
    },
    {
      "inputs": [],
      "name": "cost",
      "outputs": [
        {
          "internalType": "uint256",
          "name": "",
          "type": "uint256"
        }
      ],
      "stateMutability": "view",
      "type": "function",
      "constant": true
    },
    {
      "inputs": [
        {
          "internalType": "uint256",
          "name": "tokenId",
          "type": "uint256"
        }
      ],
      "name": "getApproved",
      "outputs": [
        {
          "internalType": "address",
          "name": "",
          "type": "address"
        }
      ],
      "stateMutability": "view",
      "type": "function",
      "constant": true
    },
    {
      "inputs": [
        {
          "internalType": "address",
          "name": "owner",
          "type": "address"
        },
        {
          "internalType": "address",
          "name": "operator",
          "type": "address"
        }
      ],
      "name": "isApprovedForAll",
      "outputs": [
        {
          "internalType": "bool",
          "name": "",
          "type": "bool"
        }
      ],
      "stateMutability": "view",
      "type": "function",
      "constant": true
    },
    {
      "inputs": [],
      "name": "max_supply",
      "outputs": [
        {
          "internalType": "uint256",
          "name": "",
          "type": "uint256"
        }
      ],
      "stateMutability": "view",
      "type": "function",
      "constant": true
    },
    {
      "inputs": [],
      "name": "name",
      "outputs": [
        {
          "internalType": "string",
          "name": "",
          "type": "string"
        }
      ],
      "stateMutability": "view",
      "type": "function",
      "constant": true
    },
    {
      "inputs": [
        {
          "internalType": "uint256",
          "name": "tokenId",
          "type": "uint256"
        }
      ],
      "name": "ownerOf",
      "outputs": [
        {
          "internalType": "address",
          "name": "",
          "type": "address"
        }
      ],
      "stateMutability": "view",
      "type": "function",
      "constant": true
    },
    {
      "inputs": [
        {
          "internalType": "address",
          "name": "operator",
          "type": "address"
        },
        {
          "internalType": "bool",
          "name": "approved",
          "type": "bool"
        }
      ],
      "name": "setApprovalForAll",
      "outputs": [],
      "stateMutability": "nonpayable",
      "type": "function"
    },
    {
      "inputs": [
        {
          "internalType": "bytes4",
          "name": "interfaceId",
          "type": "bytes4"
        }
      ],
      "name": "supportsInterface",
      "outputs": [
        {
          "internalType": "bool",
          "name": "",
          "type": "bool"
        }
      ],
      "stateMutability": "view",
      "type": "function",
      "constant": true
    },
    {
      "inputs": [],
      "name": "symbol",
      "outputs": [
        {
          "internalType": "string",
          "name": "",
          "type": "string"
        }
      ],
      "stateMutability": "view",
      "type": "function",
      "constant": true
    },
    {
      "inputs": [
        {
          "internalType": "uint256",
          "name": "tokenId",
          "type": "uint256"
        }
      ],
      "name": "tokenURI",
      "outputs": [
        {
          "internalType": "string",
          "name": "",
          "type": "string"
        }
      ],
      "stateMutability": "view",
      "type": "function",
      "constant": true
    },
    {
      "inputs": [],
      "name": "total_supply",
      "outputs": [
        {
          "internalType": "uint256",
          "name": "",
          "type": "uint256"
        }
      ],
      "stateMutability": "view",
      "type": "function",
      "constant": true
    },
    {
      "inputs": [
        {
          "internalType": "uint256",
          "name": "_id",
          "type": "uint256"
        }
      ],
      "name": "mint",
      "outputs": [],
      "stateMutability": "payable",
      "type": "function",
      "payable": true
    },
    {
      "inputs": [
        {
          "internalType": "address",
          "name": "from",
          "type": "address"
        },
        {
          "internalType": "address",
          "name": "to",
          "type": "address"
        },
        {
          "internalType": "uint256",
          "name": "tokenId",
          "type": "uint256"
        }
      ],
      "name": "transferFrom",
      "outputs": [],
      "stateMutability": "nonpayable",
      "type": "function"
    },
    {
      "inputs": [
        {
          "internalType": "address",
          "name": "from",
          "type": "address"
        },
        {
          "internalType": "address",
          "name": "to",
          "type": "address"
        },
        {
          "internalType": "uint256",
          "name": "tokenId",
          "type": "uint256"
        }
      ],
      "name": "safeTransferFrom",
      "outputs": [],
      "stateMutability": "nonpayable",
      "type": "function"
    },
    {
      "inputs": [
        {
          "internalType": "address",
          "name": "from",
          "type": "address"
        },
        {
          "internalType": "address",
          "name": "to",
          "type": "address"
        },
        {
          "internalType": "uint256",
          "name": "tokenId",
          "type": "uint256"
        },
        {
          "internalType": "bytes",
          "name": "data",
          "type": "bytes"
        }
      ],
      "name": "safeTransferFrom",
      "outputs": [],
      "stateMutability": "nonpayable",
      "type": "function"
    },
    {
      "inputs": [],
      "name": "getBuildings",
      "outputs": [
        {
          "components": [
            {
              "internalType": "string",
              "name": "name",
              "type": "string"
            },
            {
              "internalType": "address",
              "name": "owner",
              "type": "address"
            },
            {
              "internalType": "int256",
              "name": "posX",
              "type": "int256"
            },
            {
              "internalType": "int256",
              "name": "posY",
              "type": "int256"
            },
            {
              "internalType": "int256",
              "name": "posZ",
              "type": "int256"
            },
            {
              "internalType": "uint256",
              "name": "sizeX",
              "type": "uint256"
            },
            {
              "internalType": "uint256",
              "name": "sizeY",
              "type": "uint256"
            },
            {
              "internalType": "uint256",
              "name": "sizeZ",
              "type": "uint256"
            }
          ],
          "internalType": "struct Land.Building[]",
          "name": "",
          "type": "tuple[]"
        }
      ],
      "stateMutability": "view",
      "type": "function",
      "constant": true
    },
    {
      "inputs": [
        {
          "internalType": "uint256",
          "name": "_id",
          "type": "uint256"
        }
      ],
      "name": "getBuilding",
      "outputs": [
        {
          "components": [
            {
              "internalType": "string",
              "name": "name",
              "type": "string"
            },
            {
              "internalType": "address",
              "name": "owner",
              "type": "address"
            },
            {
              "internalType": "int256",
              "name": "posX",
              "type": "int256"
            },
            {
              "internalType": "int256",
              "name": "posY",
              "type": "int256"
            },
            {
              "internalType": "int256",
              "name": "posZ",
              "type": "int256"
            },
            {
              "internalType": "uint256",
              "name": "sizeX",
              "type": "uint256"
            },
            {
              "internalType": "uint256",
              "name": "sizeY",
              "type": "uint256"
            },
            {
              "internalType": "uint256",
              "name": "sizeZ",
              "type": "uint256"
            }
          ],
          "internalType": "struct Land.Building",
          "name": "",
          "type": "tuple"
        }
      ],
      "stateMutability": "view",
      "type": "function",
      "constant": true
    }
  ],
  "bytecode": "0x6080604052670de0b6b3a7640000600655600560075560006008553480156200002757600080fd5b5060405162003ecf38038062003ecf83398181016040528101906200004d9190620008d1565b828281600090805190602001906200006792919062000798565b5080600190805190602001906200008092919062000798565b5050508060068190555060096040518061010001604052806040518060400160405280600981526020017f436974795f68616c6c00000000000000000000000000000000000000000000008152508152602001600073ffffffffffffffffffffffffffffffffffffffff168152602001600081526020016000815260200160008152602001600a8152602001600a8152602001600a815250908060018154018082558091505060019003906000526020600020906008020160009091909190915060008201518160000190805190602001906200015f92919062000798565b5060208201518160010160006101000a81548173ffffffffffffffffffffffffffffffffffffffff021916908373ffffffffffffffffffffffffffffffffffffffff16021790555060408201518160020155606082015181600301556080820151816004015560a0820151816005015560c0820151816006015560e08201518160070155505060096040518061010001604052806040518060400160405280600481526020017f53746164000000000000000000000000000000000000000000000000000000008152508152602001600073ffffffffffffffffffffffffffffffffffffffff16815260200160008152602001600a815260200160008152602001600a815260200160058152602001600381525090806001815401808255809150506001900390600052602060002090600802016000909190919091506000820151816000019080519060200190620002ba92919062000798565b5060208201518160010160006101000a81548173ffffffffffffffffffffffffffffffffffffffff021916908373ffffffffffffffffffffffffffffffffffffffff16021790555060408201518160020155606082015181600301556080820151816004015560a0820151816005015560c0820151816006015560e08201518160070155505060096040518061010001604052806040518060400160405280600a81526020017f556e6976657273697479000000000000000000000000000000000000000000008152508152602001600073ffffffffffffffffffffffffffffffffffffffff168152602001600081526020017ffffffffffffffffffffffffffffffffffffffffffffffffffffffffffffffff6815260200160008152602001600a8152602001600581526020016003815250908060018154018082558091505060019003906000526020600020906008020160009091909190915060008201518160000190805190602001906200043492919062000798565b5060208201518160010160006101000a81548173ffffffffffffffffffffffffffffffffffffffff021916908373ffffffffffffffffffffffffffffffffffffffff16021790555060408201518160020155606082015181600301556080820151816004015560a0820151816005015560c0820151816006015560e08201518160070155505060096040518061010001604052806040518060400160405280601081526020017f53686f7070696e6720706c617a612031000000000000000000000000000000008152508152602001600073ffffffffffffffffffffffffffffffffffffffff168152602001600a8152602001600081526020016000815260200160058152602001601981526020016003815250908060018154018082558091505060019003906000526020600020906008020160009091909190915060008201518160000190805190602001906200058f92919062000798565b5060208201518160010160006101000a81548173ffffffffffffffffffffffffffffffffffffffff021916908373ffffffffffffffffffffffffffffffffffffffff16021790555060408201518160020155606082015181600301556080820151816004015560a0820151816005015560c0820151816006015560e08201518160070155505060096040518061010001604052806040518060400160405280600f81526020017f536f7070696e6720706c617a61203200000000000000000000000000000000008152508152602001600073ffffffffffffffffffffffffffffffffffffffff1681526020017ffffffffffffffffffffffffffffffffffffffffffffffffffffffffffffffff68152602001600081526020016000815260200160058152602001601981526020016003815250908060018154018082558091505060019003906000526020600020906008020160009091909190915060008201518160000190805190602001906200070992919062000798565b5060208201518160010160006101000a81548173ffffffffffffffffffffffffffffffffffffffff021916908373ffffffffffffffffffffffffffffffffffffffff16021790555060408201518160020155606082015181600301556080820151816004015560a0820151816005015560c0820151816006015560e08201518160070155505050505062000aed565b828054620007a690620009f8565b90600052602060002090601f016020900481019282620007ca576000855562000816565b82601f10620007e557805160ff191683800117855562000816565b8280016001018555821562000816579182015b8281111562000815578251825591602001919060010190620007f8565b5b50905062000825919062000829565b5090565b5b80821115620008445760008160009055506001016200082a565b5090565b60006200085f620008598462000982565b62000959565b9050828152602081018484840111156200087857600080fd5b62000885848285620009c2565b509392505050565b600082601f8301126200089f57600080fd5b8151620008b184826020860162000848565b91505092915050565b600081519050620008cb8162000ad3565b92915050565b600080600060608486031215620008e757600080fd5b600084015167ffffffffffffffff8111156200090257600080fd5b62000910868287016200088d565b935050602084015167ffffffffffffffff8111156200092e57600080fd5b6200093c868287016200088d565b92505060406200094f86828701620008ba565b9150509250925092565b60006200096562000978565b905062000973828262000a2e565b919050565b6000604051905090565b600067ffffffffffffffff821115620009a0576200099f62000a93565b5b620009ab8262000ac2565b9050602081019050919050565b6000819050919050565b60005b83811015620009e2578082015181840152602081019050620009c5565b83811115620009f2576000848401525b50505050565b6000600282049050600182168062000a1157607f821691505b6020821081141562000a285762000a2762000a64565b5b50919050565b62000a398262000ac2565b810181811067ffffffffffffffff8211171562000a5b5762000a5a62000a93565b5b80604052505050565b7f4e487b7100000000000000000000000000000000000000000000000000000000600052602260045260246000fd5b7f4e487b7100000000000000000000000000000000000000000000000000000000600052604160045260246000fd5b6000601f19601f8301169050919050565b62000ade81620009b8565b811462000aea57600080fd5b50565b6133d28062000afd6000396000f3fe60806040526004361061011f5760003560e01c806370a08231116100a0578063a22cb46511610064578063a22cb46514610407578063b88d4fde14610430578063c87b56dd14610459578063d9cf6a2614610496578063e985e9c5146104c15761011f565b806370a082311461031b5780638a333b501461035857806395d89b41146103835780639dfd8b02146103ae578063a0712d68146103eb5761011f565b806323b872dd116100e757806323b872dd1461021d5780633940e9ee1461024657806342842e0e146102715780634c96a0621461029a5780636352211e146102de5761011f565b806301ffc9a71461012457806306fdde0314610161578063081812fc1461018c578063095ea7b3146101c957806313faede6146101f2575b600080fd5b34801561013057600080fd5b5061014b6004803603810190610146919061227f565b6104fe565b60405161015891906128bf565b60405180910390f35b34801561016d57600080fd5b506101766105e0565b60405161018391906128da565b60405180910390f35b34801561019857600080fd5b506101b360048036038101906101ae91906122d1565b610672565b6040516101c09190612836565b60405180910390f35b3480156101d557600080fd5b506101f060048036038101906101eb9190612243565b6106f7565b005b3480156101fe57600080fd5b5061020761080f565b6040516102149190612b63565b60405180910390f35b34801561022957600080fd5b50610244600480360381019061023f919061213d565b610815565b005b34801561025257600080fd5b5061025b61090b565b6040516102689190612b63565b60405180910390f35b34801561027d57600080fd5b506102986004803603810190610293919061213d565b610911565b005b3480156102a657600080fd5b506102c160048036038101906102bc91906122d1565b610931565b6040516102d59897969594939291906128fc565b60405180910390f35b3480156102ea57600080fd5b50610305600480360381019061030091906122d1565b610a31565b6040516103129190612836565b60405180910390f35b34801561032757600080fd5b50610342600480360381019061033d91906120d8565b610ae3565b60405161034f9190612b63565b60405180910390f35b34801561036457600080fd5b5061036d610b9b565b60405161037a9190612b63565b60405180910390f35b34801561038f57600080fd5b50610398610ba1565b6040516103a591906128da565b60405180910390f35b3480156103ba57600080fd5b506103d560048036038101906103d091906122d1565b610c33565b6040516103e29190612b41565b60405180910390f35b610405600480360381019061040091906122d1565b610dc6565b005b34801561041357600080fd5b5061042e60048036038101906104299190612207565b610f5f565b005b34801561043c57600080fd5b506104576004803603810190610452919061218c565b610f75565b005b34801561046557600080fd5b50610480600480360381019061047b91906122d1565b61106d565b60405161048d91906128da565b60405180910390f35b3480156104a257600080fd5b506104ab611114565b6040516104b8919061289d565b60405180910390f35b3480156104cd57600080fd5b506104e860048036038101906104e39190612101565b611298565b6040516104f591906128bf565b60405180910390f35b60007f80ac58cd000000000000000000000000000000000000000000000000000000007bffffffffffffffffffffffffffffffffffffffffffffffffffffffff1916827bffffffffffffffffffffffffffffffffffffffffffffffffffffffff191614806105c957507f5b5e139f000000000000000000000000000000000000000000000000000000007bffffffffffffffffffffffffffffffffffffffffffffffffffffffff1916827bffffffffffffffffffffffffffffffffffffffffffffffffffffffff1916145b806105d957506105d88261132c565b5b9050919050565b6060600080546105ef90612ddc565b80601f016020809104026020016040519081016040528092919081815260200182805461061b90612ddc565b80156106685780601f1061063d57610100808354040283529160200191610668565b820191906000526020600020905b81548152906001019060200180831161064b57829003601f168201915b5050505050905090565b600061067d82611396565b6106bc576040517f08c379a00000000000000000000000000000000000000000000000000000000081526004016106b390612ae1565b60405180910390fd5b6004600083815260200190815260200160002060009054906101000a900473ffffffffffffffffffffffffffffffffffffffff169050919050565b600061070282610a31565b90508073ffffffffffffffffffffffffffffffffffffffff168373ffffffffffffffffffffffffffffffffffffffff161415610773576040517f08c379a000000000000000000000000000000000000000000000000000000000815260040161076a90612b21565b60405180910390fd5b8073ffffffffffffffffffffffffffffffffffffffff16610792611402565b73ffffffffffffffffffffffffffffffffffffffff1614806107c157506107c0816107bb611402565b611298565b5b610800576040517f08c379a00000000000000000000000000000000000000000000000000000000081526004016107f790612a61565b60405180910390fd5b61080a838361140a565b505050565b60065481565b610826610820611402565b826114c3565b610865576040517f08c379a000000000000000000000000000000000000000000000000000000000815260040161085c90612a41565b60405180910390fd5b8160096001836108759190612ce8565b815481106108ac577f4e487b7100000000000000000000000000000000000000000000000000000000600052603260045260246000fd5b906000526020600020906008020160010160006101000a81548173ffffffffffffffffffffffffffffffffffffffff021916908373ffffffffffffffffffffffffffffffffffffffff1602179055506109068383836115a1565b505050565b60085481565b61092c83838360405180602001604052806000815250610f75565b505050565b6009818154811061094157600080fd5b906000526020600020906008020160009150905080600001805461096490612ddc565b80601f016020809104026020016040519081016040528092919081815260200182805461099090612ddc565b80156109dd5780601f106109b2576101008083540402835291602001916109dd565b820191906000526020600020905b8154815290600101906020018083116109c057829003601f168201915b5050505050908060010160009054906101000a900473ffffffffffffffffffffffffffffffffffffffff16908060020154908060030154908060040154908060050154908060060154908060070154905088565b6000806002600084815260200190815260200160002060009054906101000a900473ffffffffffffffffffffffffffffffffffffffff169050600073ffffffffffffffffffffffffffffffffffffffff168173ffffffffffffffffffffffffffffffffffffffff161415610ada576040517f08c379a0000000000000000000000000000000000000000000000000000000008152600401610ad190612aa1565b60405180910390fd5b80915050919050565b60008073ffffffffffffffffffffffffffffffffffffffff168273ffffffffffffffffffffffffffffffffffffffff161415610b54576040517f08c379a0000000000000000000000000000000000000000000000000000000008152600401610b4b90612a81565b60405180910390fd5b600360008373ffffffffffffffffffffffffffffffffffffffff1673ffffffffffffffffffffffffffffffffffffffff168152602001908152602001600020549050919050565b60075481565b606060018054610bb090612ddc565b80601f0160208091040260200160405190810160405280929190818152602001828054610bdc90612ddc565b8015610c295780601f10610bfe57610100808354040283529160200191610c29565b820191906000526020600020905b815481529060010190602001808311610c0c57829003601f168201915b5050505050905090565b610c3b611fac565b6009600183610c4a9190612ce8565b81548110610c81577f4e487b7100000000000000000000000000000000000000000000000000000000600052603260045260246000fd5b906000526020600020906008020160405180610100016040529081600082018054610cab90612ddc565b80601f0160208091040260200160405190810160405280929190818152602001828054610cd790612ddc565b8015610d245780601f10610cf957610100808354040283529160200191610d24565b820191906000526020600020905b815481529060010190602001808311610d0757829003601f168201915b505050505081526020016001820160009054906101000a900473ffffffffffffffffffffffffffffffffffffffff1673ffffffffffffffffffffffffffffffffffffffff1673ffffffffffffffffffffffffffffffffffffffff16815260200160028201548152602001600382015481526020016004820154815260200160058201548152602001600682015481526020016007820154815250509050919050565b60006008549050600754811115610ddc57600080fd5b600073ffffffffffffffffffffffffffffffffffffffff166009600184610e039190612ce8565b81548110610e3a577f4e487b7100000000000000000000000000000000000000000000000000000000600052603260045260246000fd5b906000526020600020906008020160010160009054906101000a900473ffffffffffffffffffffffffffffffffffffffff1673ffffffffffffffffffffffffffffffffffffffff1614610e8c57600080fd5b670de0b6b3a7640000341015610ea157600080fd5b336009600184610eb19190612ce8565b81548110610ee8577f4e487b7100000000000000000000000000000000000000000000000000000000600052603260045260246000fd5b906000526020600020906008020160010160006101000a81548173ffffffffffffffffffffffffffffffffffffffff021916908373ffffffffffffffffffffffffffffffffffffffff160217905550600160086000828254610f4a9190612c61565b92505081905550610f5b3383611808565b5050565b610f71610f6a611402565b8383611826565b5050565b610f86610f80611402565b836114c3565b610fc5576040517f08c379a0000000000000000000000000000000000000000000000000000000008152600401610fbc90612a41565b60405180910390fd5b826009600184610fd59190612ce8565b8154811061100c577f4e487b7100000000000000000000000000000000000000000000000000000000600052603260045260246000fd5b906000526020600020906008020160010160006101000a81548173ffffffffffffffffffffffffffffffffffffffff021916908373ffffffffffffffffffffffffffffffffffffffff16021790555061106784848484611993565b50505050565b606061107882611396565b6110b7576040517f08c379a00000000000000000000000000000000000000000000000000000000081526004016110ae90612b01565b60405180910390fd5b60006110c16119ef565b905060008151116110e1576040518060200160405280600081525061110c565b806110eb84611a06565b6040516020016110fc929190612812565b6040516020818303038152906040525b915050919050565b60606009805480602002602001604051908101604052809291908181526020016000905b8282101561128f57838290600052602060002090600802016040518061010001604052908160008201805461116c90612ddc565b80601f016020809104026020016040519081016040528092919081815260200182805461119890612ddc565b80156111e55780601f106111ba576101008083540402835291602001916111e5565b820191906000526020600020905b8154815290600101906020018083116111c857829003601f168201915b505050505081526020016001820160009054906101000a900473ffffffffffffffffffffffffffffffffffffffff1673ffffffffffffffffffffffffffffffffffffffff1673ffffffffffffffffffffffffffffffffffffffff168152602001600282015481526020016003820154815260200160048201548152602001600582015481526020016006820154815260200160078201548152505081526020019060010190611138565b50505050905090565b6000600560008473ffffffffffffffffffffffffffffffffffffffff1673ffffffffffffffffffffffffffffffffffffffff16815260200190815260200160002060008373ffffffffffffffffffffffffffffffffffffffff1673ffffffffffffffffffffffffffffffffffffffff16815260200190815260200160002060009054906101000a900460ff16905092915050565b60007f01ffc9a7000000000000000000000000000000000000000000000000000000007bffffffffffffffffffffffffffffffffffffffffffffffffffffffff1916827bffffffffffffffffffffffffffffffffffffffffffffffffffffffff1916149050919050565b60008073ffffffffffffffffffffffffffffffffffffffff166002600084815260200190815260200160002060009054906101000a900473ffffffffffffffffffffffffffffffffffffffff1673ffffffffffffffffffffffffffffffffffffffff1614159050919050565b600033905090565b816004600083815260200190815260200160002060006101000a81548173ffffffffffffffffffffffffffffffffffffffff021916908373ffffffffffffffffffffffffffffffffffffffff160217905550808273ffffffffffffffffffffffffffffffffffffffff1661147d83610a31565b73ffffffffffffffffffffffffffffffffffffffff167f8c5be1e5ebec7d5bd14f71427d1e84f3dd0314c0f7b2291e5b200ac8c7c3b92560405160405180910390a45050565b60006114ce82611396565b61150d576040517f08c379a000000000000000000000000000000000000000000000000000000000815260040161150490612a21565b60405180910390fd5b600061151883610a31565b90508073ffffffffffffffffffffffffffffffffffffffff168473ffffffffffffffffffffffffffffffffffffffff16148061155a57506115598185611298565b5b8061159857508373ffffffffffffffffffffffffffffffffffffffff1661158084610672565b73ffffffffffffffffffffffffffffffffffffffff16145b91505092915050565b8273ffffffffffffffffffffffffffffffffffffffff166115c182610a31565b73ffffffffffffffffffffffffffffffffffffffff1614611617576040517f08c379a000000000000000000000000000000000000000000000000000000000815260040161160e906129a1565b60405180910390fd5b600073ffffffffffffffffffffffffffffffffffffffff168273ffffffffffffffffffffffffffffffffffffffff161415611687576040517f08c379a000000000000000000000000000000000000000000000000000000000815260040161167e906129e1565b60405180910390fd5b611692838383611bb3565b61169d60008261140a565b6001600360008573ffffffffffffffffffffffffffffffffffffffff1673ffffffffffffffffffffffffffffffffffffffff16815260200190815260200160002060008282546116ed9190612ce8565b925050819055506001600360008473ffffffffffffffffffffffffffffffffffffffff1673ffffffffffffffffffffffffffffffffffffffff16815260200190815260200160002060008282546117449190612c61565b92505081905550816002600083815260200190815260200160002060006101000a81548173ffffffffffffffffffffffffffffffffffffffff021916908373ffffffffffffffffffffffffffffffffffffffff160217905550808273ffffffffffffffffffffffffffffffffffffffff168473ffffffffffffffffffffffffffffffffffffffff167fddf252ad1be2c89b69c2b068fc378daa952ba7f163c4a11628f55a4df523b3ef60405160405180910390a4611803838383611bb8565b505050565b611822828260405180602001604052806000815250611bbd565b5050565b8173ffffffffffffffffffffffffffffffffffffffff168373ffffffffffffffffffffffffffffffffffffffff161415611895576040517f08c379a000000000000000000000000000000000000000000000000000000000815260040161188c90612a01565b60405180910390fd5b80600560008573ffffffffffffffffffffffffffffffffffffffff1673ffffffffffffffffffffffffffffffffffffffff16815260200190815260200160002060008473ffffffffffffffffffffffffffffffffffffffff1673ffffffffffffffffffffffffffffffffffffffff16815260200190815260200160002060006101000a81548160ff0219169083151502179055508173ffffffffffffffffffffffffffffffffffffffff168373ffffffffffffffffffffffffffffffffffffffff167f17307eab39ab6107e8899845ad3d59bd9653f200f220920489ca2b5937696c318360405161198691906128bf565b60405180910390a3505050565b61199e8484846115a1565b6119aa84848484611c18565b6119e9576040517f08c379a00000000000000000000000000000000000000000000000000000000081526004016119e090612981565b60405180910390fd5b50505050565b606060405180602001604052806000815250905090565b60606000821415611a4e576040518060400160405280600181526020017f30000000000000000000000000000000000000000000000000000000000000008152509050611bae565b600082905060005b60008214611a80578080611a6990612e3f565b915050600a82611a799190612cb7565b9150611a56565b60008167ffffffffffffffff811115611ac2577f4e487b7100000000000000000000000000000000000000000000000000000000600052604160045260246000fd5b6040519080825280601f01601f191660200182016040528015611af45781602001600182028036833780820191505090505b5090505b60008514611ba757600182611b0d9190612ce8565b9150600a85611b1c9190612e88565b6030611b289190612c61565b60f81b818381518110611b64577f4e487b7100000000000000000000000000000000000000000000000000000000600052603260045260246000fd5b60200101907effffffffffffffffffffffffffffffffffffffffffffffffffffffffffffff1916908160001a905350600a85611ba09190612cb7565b9450611af8565b8093505050505b919050565b505050565b505050565b611bc78383611daf565b611bd46000848484611c18565b611c13576040517f08c379a0000000000000000000000000000000000000000000000000000000008152600401611c0a90612981565b60405180910390fd5b505050565b6000611c398473ffffffffffffffffffffffffffffffffffffffff16611f89565b15611da2578373ffffffffffffffffffffffffffffffffffffffff1663150b7a02611c62611402565b8786866040518563ffffffff1660e01b8152600401611c849493929190612851565b602060405180830381600087803b158015611c9e57600080fd5b505af1925050508015611ccf57506040513d601f19601f82011682018060405250810190611ccc91906122a8565b60015b611d52573d8060008114611cff576040519150601f19603f3d011682016040523d82523d6000602084013e611d04565b606091505b50600081511415611d4a576040517f08c379a0000000000000000000000000000000000000000000000000000000008152600401611d4190612981565b60405180910390fd5b805181602001fd5b63150b7a0260e01b7bffffffffffffffffffffffffffffffffffffffffffffffffffffffff1916817bffffffffffffffffffffffffffffffffffffffffffffffffffffffff191614915050611da7565b600190505b949350505050565b600073ffffffffffffffffffffffffffffffffffffffff168273ffffffffffffffffffffffffffffffffffffffff161415611e1f576040517f08c379a0000000000000000000000000000000000000000000000000000000008152600401611e1690612ac1565b60405180910390fd5b611e2881611396565b15611e68576040517f08c379a0000000000000000000000000000000000000000000000000000000008152600401611e5f906129c1565b60405180910390fd5b611e7460008383611bb3565b6001600360008473ffffffffffffffffffffffffffffffffffffffff1673ffffffffffffffffffffffffffffffffffffffff1681526020019081526020016000206000828254611ec49190612c61565b92505081905550816002600083815260200190815260200160002060006101000a81548173ffffffffffffffffffffffffffffffffffffffff021916908373ffffffffffffffffffffffffffffffffffffffff160217905550808273ffffffffffffffffffffffffffffffffffffffff16600073ffffffffffffffffffffffffffffffffffffffff167fddf252ad1be2c89b69c2b068fc378daa952ba7f163c4a11628f55a4df523b3ef60405160405180910390a4611f8560008383611bb8565b5050565b6000808273ffffffffffffffffffffffffffffffffffffffff163b119050919050565b60405180610100016040528060608152602001600073ffffffffffffffffffffffffffffffffffffffff1681526020016000815260200160008152602001600081526020016000815260200160008152602001600081525090565b600061201a61201584612ba3565b612b7e565b90508281526020810184848401111561203257600080fd5b61203d848285612d9a565b509392505050565b60008135905061205481613340565b92915050565b60008135905061206981613357565b92915050565b60008135905061207e8161336e565b92915050565b6000815190506120938161336e565b92915050565b600082601f8301126120aa57600080fd5b81356120ba848260208601612007565b91505092915050565b6000813590506120d281613385565b92915050565b6000602082840312156120ea57600080fd5b60006120f884828501612045565b91505092915050565b6000806040838503121561211457600080fd5b600061212285828601612045565b925050602061213385828601612045565b9150509250929050565b60008060006060848603121561215257600080fd5b600061216086828701612045565b935050602061217186828701612045565b9250506040612182868287016120c3565b9150509250925092565b600080600080608085870312156121a257600080fd5b60006121b087828801612045565b94505060206121c187828801612045565b93505060406121d2878288016120c3565b925050606085013567ffffffffffffffff8111156121ef57600080fd5b6121fb87828801612099565b91505092959194509250565b6000806040838503121561221a57600080fd5b600061222885828601612045565b92505060206122398582860161205a565b9150509250929050565b6000806040838503121561225657600080fd5b600061226485828601612045565b9250506020612275858286016120c3565b9150509250929050565b60006020828403121561229157600080fd5b600061229f8482850161206f565b91505092915050565b6000602082840312156122ba57600080fd5b60006122c884828501612084565b91505092915050565b6000602082840312156122e357600080fd5b60006122f1848285016120c3565b91505092915050565b60006123068383612694565b905092915050565b61231781612d1c565b82525050565b61232681612d1c565b82525050565b600061233782612be4565b6123418185612c12565b93508360208202850161235385612bd4565b8060005b8581101561238f578484038952815161237085826122fa565b945061237b83612c05565b925060208a01995050600181019050612357565b50829750879550505050505092915050565b6123aa81612d2e565b82525050565b60006123bb82612bef565b6123c58185612c23565b93506123d5818560208601612da9565b6123de81612f75565b840191505092915050565b6123f281612d66565b82525050565b61240181612d66565b82525050565b600061241282612bfa565b61241c8185612c34565b935061242c818560208601612da9565b61243581612f75565b840191505092915050565b600061244b82612bfa565b6124558185612c45565b9350612465818560208601612da9565b61246e81612f75565b840191505092915050565b600061248482612bfa565b61248e8185612c56565b935061249e818560208601612da9565b80840191505092915050565b60006124b7603283612c45565b91506124c282612f86565b604082019050919050565b60006124da602583612c45565b91506124e582612fd5565b604082019050919050565b60006124fd601c83612c45565b915061250882613024565b602082019050919050565b6000612520602483612c45565b915061252b8261304d565b604082019050919050565b6000612543601983612c45565b915061254e8261309c565b602082019050919050565b6000612566602c83612c45565b9150612571826130c5565b604082019050919050565b6000612589601e83612c45565b915061259482613114565b602082019050919050565b60006125ac603883612c45565b91506125b78261313d565b604082019050919050565b60006125cf602a83612c45565b91506125da8261318c565b604082019050919050565b60006125f2602983612c45565b91506125fd826131db565b604082019050919050565b6000612615602083612c45565b91506126208261322a565b602082019050919050565b6000612638602c83612c45565b915061264382613253565b604082019050919050565b600061265b602f83612c45565b9150612666826132a2565b604082019050919050565b600061267e602183612c45565b9150612689826132f1565b604082019050919050565b60006101008301600083015184820360008601526126b28282612407565b91505060208301516126c7602086018261230e565b5060408301516126da60408601826123e9565b5060608301516126ed60608601826123e9565b50608083015161270060808601826123e9565b5060a083015161271360a08601826127f4565b5060c083015161272660c08601826127f4565b5060e083015161273960e08601826127f4565b508091505092915050565b60006101008301600083015184820360008601526127628282612407565b9150506020830151612777602086018261230e565b50604083015161278a60408601826123e9565b50606083015161279d60608601826123e9565b5060808301516127b060808601826123e9565b5060a08301516127c360a08601826127f4565b5060c08301516127d660c08601826127f4565b5060e08301516127e960e08601826127f4565b508091505092915050565b6127fd81612d90565b82525050565b61280c81612d90565b82525050565b600061281e8285612479565b915061282a8284612479565b91508190509392505050565b600060208201905061284b600083018461231d565b92915050565b6000608082019050612866600083018761231d565b612873602083018661231d565b6128806040830185612803565b818103606083015261289281846123b0565b905095945050505050565b600060208201905081810360008301526128b7818461232c565b905092915050565b60006020820190506128d460008301846123a1565b92915050565b600060208201905081810360008301526128f48184612440565b905092915050565b6000610100820190508181036000830152612917818b612440565b9050612926602083018a61231d565b61293360408301896123f8565b61294060608301886123f8565b61294d60808301876123f8565b61295a60a0830186612803565b61296760c0830185612803565b61297460e0830184612803565b9998505050505050505050565b6000602082019050818103600083015261299a816124aa565b9050919050565b600060208201905081810360008301526129ba816124cd565b9050919050565b600060208201905081810360008301526129da816124f0565b9050919050565b600060208201905081810360008301526129fa81612513565b9050919050565b60006020820190508181036000830152612a1a81612536565b9050919050565b60006020820190508181036000830152612a3a81612559565b9050919050565b60006020820190508181036000830152612a5a8161257c565b9050919050565b60006020820190508181036000830152612a7a8161259f565b9050919050565b60006020820190508181036000830152612a9a816125c2565b9050919050565b60006020820190508181036000830152612aba816125e5565b9050919050565b60006020820190508181036000830152612ada81612608565b9050919050565b60006020820190508181036000830152612afa8161262b565b9050919050565b60006020820190508181036000830152612b1a8161264e565b9050919050565b60006020820190508181036000830152612b3a81612671565b9050919050565b60006020820190508181036000830152612b5b8184612744565b905092915050565b6000602082019050612b786000830184612803565b92915050565b6000612b88612b99565b9050612b948282612e0e565b919050565b6000604051905090565b600067ffffffffffffffff821115612bbe57612bbd612f46565b5b612bc782612f75565b9050602081019050919050565b6000819050602082019050919050565b600081519050919050565b600081519050919050565b600081519050919050565b6000602082019050919050565b600082825260208201905092915050565b600082825260208201905092915050565b600082825260208201905092915050565b600082825260208201905092915050565b600081905092915050565b6000612c6c82612d90565b9150612c7783612d90565b9250827fffffffffffffffffffffffffffffffffffffffffffffffffffffffffffffffff03821115612cac57612cab612eb9565b5b828201905092915050565b6000612cc282612d90565b9150612ccd83612d90565b925082612cdd57612cdc612ee8565b5b828204905092915050565b6000612cf382612d90565b9150612cfe83612d90565b925082821015612d1157612d10612eb9565b5b828203905092915050565b6000612d2782612d70565b9050919050565b60008115159050919050565b60007fffffffff0000000000000000000000000000000000000000000000000000000082169050919050565b6000819050919050565b600073ffffffffffffffffffffffffffffffffffffffff82169050919050565b6000819050919050565b82818337600083830152505050565b60005b83811015612dc7578082015181840152602081019050612dac565b83811115612dd6576000848401525b50505050565b60006002820490506001821680612df457607f821691505b60208210811415612e0857612e07612f17565b5b50919050565b612e1782612f75565b810181811067ffffffffffffffff82111715612e3657612e35612f46565b5b80604052505050565b6000612e4a82612d90565b91507fffffffffffffffffffffffffffffffffffffffffffffffffffffffffffffffff821415612e7d57612e7c612eb9565b5b600182019050919050565b6000612e9382612d90565b9150612e9e83612d90565b925082612eae57612ead612ee8565b5b828206905092915050565b7f4e487b7100000000000000000000000000000000000000000000000000000000600052601160045260246000fd5b7f4e487b7100000000000000000000000000000000000000000000000000000000600052601260045260246000fd5b7f4e487b7100000000000000000000000000000000000000000000000000000000600052602260045260246000fd5b7f4e487b7100000000000000000000000000000000000000000000000000000000600052604160045260246000fd5b6000601f19601f8301169050919050565b7f4552433732313a207472616e7366657220746f206e6f6e20455243373231526560008201527f63656976657220696d706c656d656e7465720000000000000000000000000000602082015250565b7f4552433732313a207472616e736665722066726f6d20696e636f72726563742060008201527f6f776e6572000000000000000000000000000000000000000000000000000000602082015250565b7f4552433732313a20746f6b656e20616c7265616479206d696e74656400000000600082015250565b7f4552433732313a207472616e7366657220746f20746865207a65726f2061646460008201527f7265737300000000000000000000000000000000000000000000000000000000602082015250565b7f4552433732313a20617070726f766520746f2063616c6c657200000000000000600082015250565b7f4552433732313a206f70657261746f7220717565727920666f72206e6f6e657860008201527f697374656e7420746f6b656e0000000000000000000000000000000000000000602082015250565b7f4552433732313a206e6f74206f776e6572206e6f7220617070726f7665640000600082015250565b7f4552433732313a20617070726f76652063616c6c6572206973206e6f74206f7760008201527f6e6572206e6f7220617070726f76656420666f7220616c6c0000000000000000602082015250565b7f4552433732313a2062616c616e636520717565727920666f7220746865207a6560008201527f726f206164647265737300000000000000000000000000000000000000000000602082015250565b7f4552433732313a206f776e657220717565727920666f72206e6f6e657869737460008201527f656e7420746f6b656e0000000000000000000000000000000000000000000000602082015250565b7f4552433732313a206d696e7420746f20746865207a65726f2061646472657373600082015250565b7f4552433732313a20617070726f76656420717565727920666f72206e6f6e657860008201527f697374656e7420746f6b656e0000000000000000000000000000000000000000602082015250565b7f4552433732314d657461646174613a2055524920717565727920666f72206e6f60008201527f6e6578697374656e7420746f6b656e0000000000000000000000000000000000602082015250565b7f4552433732313a20617070726f76616c20746f2063757272656e74206f776e6560008201527f7200000000000000000000000000000000000000000000000000000000000000602082015250565b61334981612d1c565b811461335457600080fd5b50565b61336081612d2e565b811461336b57600080fd5b50565b61337781612d3a565b811461338257600080fd5b50565b61338e81612d90565b811461339957600080fd5b5056fea26469706673582212201a50c64369dd15158b93db8513501456528e9bcebd134e03a7106d9d9cb13ca464736f6c63430008020033",
  "immutableReferences": {},
  "source": "pragma solidity ^0.8.0;\n\nimport \"@openzeppelin/contracts/token/ERC721/ERC721.sol\";\n\ncontract Land is ERC721{\n\n    uint public cost = 1 ether;\n    uint public  max_supply = 5;\n    uint public total_supply = 0;\n\n    struct Building{\n        string name;\n        address owner;\n        int256 posX;\n        int256 posY;\n        int256 posZ;\n        uint256 sizeX;\n        uint256 sizeY;\n        uint256 sizeZ;\n\n\n    }\n\n    Building[] public buildings;\n\n    constructor(string memory _name, string memory _symbol, uint  _cost) ERC721(_name,_symbol){\n        cost = _cost;\n        buildings.push(\n            Building(\"City_hall\", address(0x0), 0,0,0,10,10,10)\n        );\n        buildings.push(\n            Building(\"Stad\", address(0x0), 0,10,0,10,5,3)\n        );\n        buildings.push(\n            Building(\"University\", address(0x0), 0,-10,0,10,5,3)\n        );\n        buildings.push(\n            Building(\"Shopping plaza 1\", address(0x0), 10,0,0,5,25,3)\n        );\n        buildings.push(\n            Building(\"Sopping plaza 2\", address(0x0), -10,0,0,5,25,3)\n        );\n\n\n\n\n\n    }\n\n    function  mint(uint256 _id) public payable {\n        uint256 supply= total_supply;\n        require(supply<= max_supply);\n        require(buildings[_id -1].owner==address(0x0));\n        require(msg.value>=1 ether);\n\n        buildings[_id-1].owner = msg.sender;\n        total_supply+=1;\n        _safeMint(msg.sender, _id);\n\n    }\n    \n    function transferFrom(\n        address from,\n        address to,\n        uint256 tokenId)public override{\n\n            require(_isApprovedOrOwner(_msgSender(), tokenId),\n            \"ERC721: not owner nor approved\"\n            );\n\n            buildings[tokenId-1].owner = to;\n            _transfer(from, to, tokenId);\n        } // transorm land\n    \n    function safeTransferFrom(\n        address from,\n        address to,\n        uint256 tokenId,\n        bytes memory data\n    )public override{\n\n            require(_isApprovedOrOwner(_msgSender(), tokenId),\n            \"ERC721: not owner nor approved\"\n            );\n            // updates building ownership\n            buildings[tokenId-1].owner = to;\n            _safeTransfer(from, to, tokenId,data) ;\n        } // transorm land\n\n    function getBuildings()public view returns(Building[] memory) {\n        return buildings;\n    }\n\n    function getBuilding(uint256 _id)public view returns(Building memory) {\n        return buildings[_id-1]; \n    }\n\n}\n\n\n",
  "sourcePath": "/Users/mamourhita/metaverse/src/contracts/land.sol",
  "compiler": {
    "name": "solc",
    "version": "0.8.2+commit.661d1103.Emscripten.clang"
  },
  "schemaVersion": "3.4.7",
  "updatedAt": "2022-05-22T11:09:52.219Z",
  "networkType": "ethereum",
  "devdoc": {
    "kind": "dev",
    "methods": {
      "approve(address,uint256)": {
        "details": "See {IERC721-approve}."
      },
      "balanceOf(address)": {
        "details": "See {IERC721-balanceOf}."
      },
      "getApproved(uint256)": {
        "details": "See {IERC721-getApproved}."
      },
      "isApprovedForAll(address,address)": {
        "details": "See {IERC721-isApprovedForAll}."
      },
      "name()": {
        "details": "See {IERC721Metadata-name}."
      },
      "ownerOf(uint256)": {
        "details": "See {IERC721-ownerOf}."
      },
      "safeTransferFrom(address,address,uint256)": {
        "details": "See {IERC721-safeTransferFrom}."
      },
      "setApprovalForAll(address,bool)": {
        "details": "See {IERC721-setApprovalForAll}."
      },
      "supportsInterface(bytes4)": {
        "details": "See {IERC165-supportsInterface}."
      },
      "symbol()": {
        "details": "See {IERC721Metadata-symbol}."
      },
      "tokenURI(uint256)": {
        "details": "See {IERC721Metadata-tokenURI}."
      },
      "transferFrom(address,address,uint256)": {
        "details": "See {IERC721-transferFrom}."
      }
    },
    "version": 1
  },
  "userdoc": {
    "kind": "user",
    "methods": {},
    "version": 1
  }
}